:020000040000FA
:10000000E8F7FF1FC1000000CD000000CF00000096
:1000100000000000000000000000000000000000E0
:10002000000000000000000000000000D1000000FF
:100030000000000000000000D3000000D500000018
:10004000D7000000D7000000D7000000D700000054
:10005000D7000000D7000000D7000000D700000044
:10006000D7000000D7000000D7000000D700000034
:10007000D9050000F105000009060000D7000000C6
:10008000D7000000D7000000D7000000D700000014
:10009000D7000000D7000000D7000000D700000004
:1000A000D7000000D7000000D7000000D7000000F4
:1000B000D7000000D7000000D7000000D7000000E4
:1000C00072B60948804762B608480047FEE7FEE777
:1000D000FEE7FEE7FEE70648004700000548064940
:1000E000044A064B70470000CD0500007D02000069
:1000F000D7000000E8F6FF1FE8F7FF1FE8F6FF1F34
:10010000002203098B422CD3030A8B4211D3002314
:100110009C464EE003460B433CD4002243088B42EE
:1001200031D303098B421CD3030A8B4201D394467B
:100130003FE0C3098B4201D3CB01C01A524183096E
:100140008B4201D38B01C01A524143098B4201D328
:100150004B01C01A524103098B4201D30B01C01A53
:100160005241C3088B4201D3CB00C01A52418308CD
:100170008B4201D38B00C01A524143088B4201D3FA
:100180004B00C01A5241411A00D20146524110465A
:1001900070475DE0CA0F00D04942031000D34042CF
:1001A000534000229C4603098B422DD3030A8B4205
:1001B00012D3FC22890112BA030A8B420CD38901A3
:1001C00092118B4208D3890192118B4204D3890189
:1001D0003AD0921100E08909C3098B4201D3CB01C7
:1001E000C01A524183098B4201D38B01C01A52417C
:1001F00043098B4201D34B01C01A524103098B4280
:1002000001D30B01C01A5241C3088B4201D3CB006A
:10021000C01A524183088B4201D38B00C01A52414D
:10022000D9D243088B4201D34B00C01A5241411A24
:1002300000D20146634652415B10104601D3404252
:10024000002B00D54942704763465B1000D3404203
:1002500001B50020C046C04602BD704770477047D8
:1002600010B500F0B7F80023034A2F21184600F01C
:10027000E1F800F0BDF810BD5B08000008B551487A
:10028000406B0121890508434E4948630846806B4D
:10029000C91408434B4988634B48C0698915084312
:1002A0004949C8610846006A8915084346490862F9
:1002B00046484069FF21813108434449486142482A
:1002C00000694915084340490861084640694915D5
:1002D00008433D49486108468069491508433A4941
:1002E00088613B48007840218843394908700846B6
:1002F0000078102108433649087008460078400805
:10030000400008700846007808218843304908708A
:1003100008460078042188432D4908700846007873
:10032000022108432A4908700846407810210843F2
:10033000274948700846807870218843244988708E
:1003400008468078022108432149887008460078D1
:10035000402108431E4908701C48006889158843DD
:100360001A4908600020009002E00098401C0090AC
:1003700000980528F9D315480068FF21013108438A
:10038000124908602121002000F04AF99021002044
:1003900000F046F9B821002000F042F904210020C5
:1003A00000F03EF91421002000F03AF9202100204D
:1003B00000F036F90C21002000F032F901E0FFF7DF
:1003C0004FFFFCE70080044000B0044080F00F4085
:1003D00000600740002003E00021044A1154401C43
:1003E000FF21F9318842F7DB704700000CF0FF1F56
:1003F00010B5024800F00CF810BD00000CF0FF1F13
:10040000FFFFFFFFFFFFFFFFFFFFFFFFFEFFFFFFFD
:1004100070B505460021084600F0C0F8002404E04D
:10042000295D012000F0FCF8641CFF20F9308442B3
:10043000F6DB70BDFFB585B00E460798847C079843
:10044000807D04900499002910DD2046E10F0918F1
:1004500049104900611A09D105990919542905DC87
:100460000499491EB14201DC302E01DD09B0F0BD16
:1004700008980E2801DD0E200890F117490F891900
:100480004903090C029154210298484305994018E8
:1004900085B23046F117490F0918C910C900711A01
:1004A0000191012101988140C8B201900798877A93
:1004B0000120039064E00798C05D0011089988420C
:1004C00006DD3548405D019908433349485505E04C
:1004D0003148415D019881432F484155681C85B2E0
:1004E0000798C05D0107090F0898814206DD2A4878
:1004F000405D019908432849485505E02648415D7B
:100500000198814324484155681C85B27F1CE00F47
:100510000019411000940398FFF7FCFD00292CD12D
:100520000198012803DD01984010019005E080202A
:1005300001900298401E80B20290542102984843D4
:100540000599401885B2E20F12195010C217920F88
:10055000121892109200821A06D0012A06D0022A9E
:1005600006D0032A08D105E000BF05E0FF1C03E028
:10057000BF1C01E07F1C00BF00BF0398401C03901C
:10058000049961430846C90F09184A1003998A4221
:1005900091DA00BF6AE700000CF0FF1F70B5044657
:1005A0000D460B2C01DC052D00DD70BDE000001BAD
:1005B00080221043C1B2002000F032F840202843CE
:1005C0000146002000F02CF800BFEEE700200149B2
:1005D000086070470081044010B504480068002896
:1005E00002D002480068804710BD000000F0FF1FE5
:1005F00010B504480068002802D00248006880470F
:1006000010BD000004F0FF1F10B50448006800286A
:1006100002D002480068804710BD000008F0FF1FAC
:10062000002816D100BF144AD27820231A40202A6D
:10063000F9D1124A126880239A43104B1A600E4A6D
:10064000517100BF0C4AD27820231A40202AF9D1D8
:1006500010E001280ED100BF074AD27820231A40AB
:10066000202AF9D1054A126880231A43034B1A60E5
:10067000014A5171704700000060074080F00F4050
:10068000000000000000005F0000000700070014E9
:100690007F147F14242A7F2A1223130864623649A8
:1006A0005522500005030000001C22410000412299
:1006B0001C0014083E081408083E080800503000CA
:1006C0000008080808080060600000201008040204
:1006D0003E5149453E00427F40004261514946211A
:1006E00041454B311814127F1027454545393C4A86
:1006F00049493001710905033649494936064949D6
:10070000291E00363600000056360000081422412B
:100710000014141414140041221408020151090693
:10072000324979413E7E1111117E7F494949363E59
:10073000414141227F4141221C7F494949417F0972
:100740000909013E4149497A7F0808087F00417F35
:1007500041002040413F017F081422417F4040403A
:10076000407F020C027F7F0408107F3E4141413EE2
:100770007F090909063E4151215E7F091929464634
:100780004949493101017F01013F4040403F1F205D
:1007900040201F3F4038403F63140814630708702F
:1007A00008076151494543007F4141000204081098
:1007B000200041417F0004020102044040404040CB
:1007C000000102040020545454787F4844443838CF
:1007D00044444420384444487F3854545418087ED4
:1007E0000901020C5252523E7F0804047800447DF5
:1007F00040002040443D007F1028440000417F40DD
:10080000007C041804787C08040478384444443894
:100810007C14141408081414187C7C080404084878
:1008200054545420043F4440203C4040207C1C2031
:1008300040201C3C4030403C44281028440C505080
:10084000503C4464544C44000836410000007F0092
:100850000000413608001008081008424DB6080094
:100860000000000000760000002800000054000096
:1008700000300000000100040000000000400800FB
:100880000000000000000000000000000000000068
:100890000000000000000080000080000000808058
:1008A0000080000000800080008080000080808048
:1008B00000C0C0C0000000FF0000FF000000FFFFFC
:1008C00000FF000000FF00FF00FFFF0000FFFFFF30
:1008D0000000000000000000000000000000000018
:1008E0000000000FFFFFFFFFFF00000000000000FE
:1008F00000000000000000000000000000000000F8
:1009000000000000000000000000000000000000E7
:10091000000000000F0000000000000000000000C8
:1009200000000000000000000000000000000000C7
:1009300000000000000000000000000000000000B7
:100940000F00000000000000000000000000000098
:100950000000000000000000000000000000000097
:10096000000000000000000FFFFFFFFFFF0000007D
:100970000000000000000000000000000000000077
:100980000000000000000000000000000000000067
:100990000000000F00000000000000000000000048
:1009A0000000000000000000000000000000000047
:1009B0000000000000000000000000000000000F28
:1009C0000000000000000000000000000000000027
:1009D0000000000000000000000000000000000017
:1009E00000000000000000000000000FFFFFFFFFFC
:1009F000FF000000000000000000000000000000F8
:100A000000000000000000000000000000000000E6
:100A100000000000000000000000000000000000D6
:100A200000000000000000000000000000000000C6
:100A300000000000000000000000000000000000B6
:100C10000000000000FF00000FF0000000000000D6
:100C200000000000000000000000000000000000C4
:100C30000000000000000000000000FFFFFFFF00B8
:100C400000F0F000F0F000000000000000000000E4
:100C50000000000000000000000000000000000094
:100C600000000000000000F00000000000F00F0F86
:100C700000F0000000000000000000000000000084
:100C80000000000000000000000000000000000064
:100C9000000000F00000000000F000F000F0000094
:100CA0000000000000000000000000000000000044
:100CB000000000000000000000000000000000F044
:100CC0000000000000F0000000F000000000000044
:100CD00000000000000000000000F0000000000024
:100CE0000000000000000000000000FFFFFFFF0008
:100CF00000F0000000F00000000000000000000014
:100D0000000000000000F0000000000000000000F3
:100D100000000000000000F00000000000F00000F3
:100D200000F00000000000000000000000000000D3
:100D30000000F000000000000000000000000000C3
:100D4000000000F00000000000F0000000F00000D3
:100D50000000000000000000000000000000F000A3
:100D6000000000000000000000000000000000F093
:100D70000000000000F0000000F000000000000093
:100D800000000000000000000000F0000000000073
:100D90000000000000000000000000FFFFFFFF0057
:100DA0000000000000000000000000000000000043
:100DB000000000000000F000000000000000000043
:100DC0000000000000000000000000000000000023
:100DD0000000000000000000000000000000000013
:100DE0000000F00000000000000000000000000013
:100DF00000000000000000000000000000000000F3
:100E00000000000000000000000000000000F000F2
:100E100000000000000000000000000000000000D2
:100E200000000000000000000000000000000000C2
:100E300000000000000000000000F00000000000C2
:100E400000000000000000000000000000000000A2
:100E50000000000000000000000000000000000092
:100E6000000000000000F000000000000000000092
:100E70000000000000000000000000000000000072
:100E80000000000000000000000000000000000062
:100E90000000F00000000000000000000000000062
:100EA0000000000000000000000000000000000042
:100EB0000000000000000000000000000000F00042
:100EC0000000000000000000000000000000000022
:100ED0000000000000000000000000000000000012
:100EE00000000000000000000000F0000000000012
:100EF00000000000000000000000000000000000F2
:100F000000000000000000000000000000000000E1
:100F1000000000000000F0000000000000000000E1
:100F200000000000000000000000000000000000C1
:100F300000000000000000000000000000000000B1
:100F40000000F000000000000000000000000000B1
:100F50000000000000000000000000000000000091
:100F60000000000000000000000000000000F00091
:100F70000000000000000000000000000000000071
:100F80000000000000000000000000000000000061
:100F90000000000000000000000000000000000051
:100FA0000000000000000000000000000000000041
:100FB0000000000000000000000000000000000031
:100FC0000000000F0000000F000000000000000003
:100FD0000000000000000000000000000000000011
:100FE0000000000000000000000000000000000FF2
:100FF000000000FF000000000000000000000000F2
:1010000000000000000000000000000000000000E0
:1010100000000000000000000000000F00000F0FA3
:1010200000000000000000000000000000000000C0
:1010300000000000000000000000000000000000B0
:10104000000000000000000F0000F00F0000000092
:101050000000000000000000000000000000000090
:101060000000000000000000000000000000000080
:101070000000000F000F000F000000000000000043
:101080000000000000000000000000000000000060
:101090000000000000000000000000000000000F41
:1010A00000F0000F00000000000000000000000041
:1010B0000000000000000000000000000000000030
:1010C00000000000000000000000000F0F00000FF3
:1010D0000000000000000000000000000000000010
:1010E0000000000000000000000000000000000000
:1010F000000000000000000FF000000F00000000E2
:1011000000000000000000000000000000000000DF
:1011100000FF0000010001014000000040F2FF1F3D
:1011200040F6FF1FC0F6FF1F000000000000000097
:081130000000000000000000B7
:04000005000000C136
:00000001FF
