:020000040000FA
:10000000E8F5FF1FC1000000CD000000CF00000098
:1000100000000000000000000000000000000000E0
:10002000000000000000000000000000D1000000FF
:100030000000000000000000D3000000D500000018
:10004000D7000000D7000000D7000000D700000054
:10005000D7000000D7000000D7000000D700000044
:10006000D7000000D7000000D7000000D700000034
:10007000A1060000B9060000D1060000D70000006C
:10008000D7000000D7000000D7000000D700000014
:10009000D7000000D7000000D7000000D700000004
:1000A000D7000000D7000000D7000000D7000000F4
:1000B000D7000000D7000000D7000000D7000000E4
:1000C00072B60948804762B608480047FEE7FEE777
:1000D000FEE7FEE7FEE70648004700000548064940
:1000E000044A064B70470000F103000011040000B1
:1000F000D7000000E8F4FF1FE8F5FF1FE8F4FF1F3A
:10010000002203098B422CD3030A8B4211D3002314
:100110009C464EE003460B433CD4002243088B42EE
:1001200031D303098B421CD3030A8B4201D394467B
:100130003FE0C3098B4201D3CB01C01A524183096E
:100140008B4201D38B01C01A524143098B4201D328
:100150004B01C01A524103098B4201D30B01C01A53
:100160005241C3088B4201D3CB00C01A52418308CD
:100170008B4201D38B00C01A524143088B4201D3FA
:100180004B00C01A5241411A00D20146524110465A
:1001900070475DE0CA0F00D04942031000D34042CF
:1001A000534000229C4603098B422DD3030A8B4205
:1001B00012D3FC22890112BA030A8B420CD38901A3
:1001C00092118B4208D3890192118B4204D3890189
:1001D0003AD0921100E08909C3098B4201D3CB01C7
:1001E000C01A524183098B4201D38B01C01A52417C
:1001F00043098B4201D34B01C01A524103098B4280
:1002000001D30B01C01A5241C3088B4201D3CB006A
:10021000C01A524183088B4201D38B00C01A52414D
:10022000D9D243088B4201D34B00C01A5241411A24
:1002300000D20146634652415B10104601D3404252
:10024000002B00D54942704763465B1000D3404203
:1002500001B50020C046C04602BD704770477047D8
:1002600070B55C480078C021084000287ED159480C
:10027000407940210840002865D156480078042183
:10028000084000282CD1544C524840783021084076
:10029000002817D04F48007838210840302804D073
:1002A000382805D103256D020BE005252D0208E055
:1002B0004848007838210840C1082020884085B28D
:1002C00000BF07E04348007838210840C1080120FA
:1002D000884085B229462046FFF712FF044601E018
:1002E0000124E4033B48C078E0210840C106C90E60
:1002F000002926D14011030000F0F6F90805090D88
:100300001115191D20230520C00144431AE00520C2
:100310000002444316E00F20C001444312E00520D0
:10032000400244430EE0B720800044430AE0B72077
:10033000C000444306E02948444303E028484443BE
:1003400000E000BF3BE023480079C006C00E451C1A
:1003500029462148FFF7D4FE04461E484079C006CE
:10036000C00E054618352046684300E001E004460B
:1003700025E018480078C0210840402816D11548CB
:100380004078C007C00F002802D10124E40316E022
:100390001048007A0E21084041080120884085B2AB
:1003A00029461048FFF7ACFE044608E009480078EB
:1003B000C0210840802801D1074C00E070BD0A48E8
:1003C0004068000F411C2046FFF79AFE074908606D
:1003D00000BFF3E70040064000127A0095080000D5
:1003E000710B000000093D00408004401CF0FF1F1D
:1003F0000020014908607047008104400171704786
:10040000FFFFFFFFFFFFFFFFFFFFFFFFFEFFFFFFFD
:10041000754876490860FFF723FF4B22D20100217F
:10042000734800F0BBFA5321714800F0F5FB6121DD
:100430006F4800F0F1FB74216D4800F0EDFB69217D
:100440006B4800F0E9FB6621694800F0E5FB692193
:10045000674800F0E1FB6521654800F0DDFB6421A1
:10046000634800F0D9FB1F2300220121614800F0FE
:100470005BF961A15E4800F0D7FB67A15C4800F022
:10048000D3FB002302221E215A4800F061FA1023F8
:1004900000221E21574800F05BFA0A221E2155480F
:1004A00000F0F1F90B221E21524800F0ECF90C2269
:1004B0001E21504800F0E7F963A14D4800F0B4FB5D
:1004C000202301221E214B4800F042FA8AE0092233
:1004D0001E21484800F0D7F96449087003221E2104
:1004E000444800F0D0F96249087004221E214148B6
:1004F00000F0C9F95F49087007221E213D4800F04D
:10050000C2F95D49087008221E213A4800F0BBF983
:100510005A490870584909780902584A1278114313
:1005200008B20B21FFF7F6FD00B25549088050498B
:10053000097809024F4A1278114308B20B21FFF7DC
:10054000E9FD00B24F4908804FA1294800F06CFB3B
:100550000A214C4A0020105EFFF7DCFD3030C4B2A7
:100560002146234800F058FB0A21464A0020105E2D
:10057000FFF7D0FD3031CCB221461D4800F04CFBD6
:1005800000203B4908703B49087042A1184800F020
:100590004BFB0A213A4A0020105EFFF7BBFD3030CA
:1005A000C4B22146124800F037FB0A21344A002029
:1005B000105EFFF7AFFD3031CCB221460C4800F0A1
:1005C0002BFB00202C4908702C49087000230922BD
:1005D0001E21084800F0BCF9002302221E21054814
:1005E00000F0B6F973E7000000366E011CF0FF1F43
:1005F00000A006400060064020454E61626C6564C4
:10060000206D61676E657469632073656E736F72C8
:100610002E2E2E200A000000204D6F646520736589
:100620007420746F20436F6E74696E756F757320DC
:10063000636F6E76657273696F6E206D6F64652E81
:100640002E2E200A00000000204761696E20636F93
:100650006E6669677572656420746F202B2F2D207C
:10066000312E332E2E2E200A0000000018F0FF1F1E
:1006700012F0FF1F15F0FF1F13F0FF1F16F0FF1FF2
:100680000EF0FF1F0CF0FF1F5820617869732020C7
:100690000A000000592061786973200A00000000F8
:1006A00010B504480068002802D00248006880475E
:1006B00010BD000000F0FF1F10B5044800680028BE
:1006C00002D002480068804710BD000004F0FF1F00
:1006D00010B504480068002802D00248006880472E
:1006E00010BD000008F0FF1F30B47446641E25786A
:1006F000641CAB4204D3635D5B00E31830BC184755
:100700001D46F8E7002100BF01E000BF491C8142FF
:10071000FBD370478178082211438170704781783C
:10072000102291438170704770B504464D48844251
:1007300043D1002906D0012911D002291BD0032959
:1007400031D124E04848806B01256D032843464D94
:10075000A86305200002454D2862686225E04248F2
:10076000806B0125AD0228433F4DA8636815404DBD
:100770002860686019E03C48806B0125AD02284381
:10078000394DA86368153A4DA860E8600DE0364819
:10079000806B0125ED022843334DA8636815354D64
:1007A0002862686201E0002070BD00BF2E48406BE7
:1007B000402528432C4D686349E02F48844244D1AA
:1007C000002906D0012912D002291CD0032932D1D8
:1007D00025E02548806B01256D032843224DA86341
:1007E00003204002214D403D2860686025E01E48FE
:1007F000806B01256D0228431B4DA86368151F4DB2
:10080000E860286119E01848806B0125ED02284353
:10081000154DA8636815174D6860A8600DE0124873
:10082000806B0125ED0228430F4DA8636815114D1B
:10083000A862E86201E00020B6E700BF0A48406B0A
:1008400080252843084D686301E00020ACE7980646
:10085000800E9501C0263540284360708020A0702E
:100860000120A1E7006006400080044040D0044021
:1008700000A0044000B00440007006400090044016
:10088000014608797047F0B506460C461546002724
:10089000304600F039F86006010E3046FFF7AEFD35
:1008A000304600F043F829463046FFF7A7FD3046B2
:1008B00000F03CF8304600F022F86000401CC1B265
:1008C0003046FFF79BFD304600F030F83046FFF72A
:1008D00026FF3046FFF71EFF3046FFF7D1FF0746E1
:1008E000304600F023F8304600F017F83046FFF7A6
:1008F000C7FF07463220FFF705FF3846F0BD817875
:100900000422114381707047817810221143817055
:100910008178202211438170704781782022914391
:1009200081708178102291438170704700210749BE
:1009300000E0491EC27802231A40002A01D1002992
:10094000F7D1C27802231A43C270704740420F00A9
:10095000F0B507460C4615461E463846FFF7D4FF4D
:100960006006010E3846FFF749FD3846FFF7DEFF07
:1009700029463846FFF742FD3846FFF7D7FF314694
:100980003846FFF73BFD3846FFF7D0FF3846FFF704
:10099000C4FF3220FFF7B6FEF0BD0000FEB50446EE
:1009A0000F4616469248844269D19248406B211501
:1009B00008439049486308464068032189068843F4
:1009C0008C494860084640680121890608438949E6
:1009D0004860314688480068FFF792FB80B200907B
:1009E000C017010F0098081805113B00FFF77CFEA7
:1009F0000504101D2A3744007E48806B01214902FE
:100A000008437C49886348157C494860886035E024
:100A10007848806B012149020843764988630320A6
:100A2000000276498863C86328E07248806B012120
:100A3000890208436F4988630320000270490860F7
:100A400048601BE06B48806B01210903084369493A
:100A50008863032000026B498861C8610EE0654825
:100A6000806B012149030843624988630320000227
:100A700065498861C86101E00020FEBDA0E06348CF
:100A800084424BD15B48406BE114084359494863A9
:100A9000E1204002864209D157490968C809314618
:100AA000FFF72EFB4221484385B205E07101524811
:100AB0000068FFF725FB85B2002F04D0012F10D06E
:100AC000022F28D11AE04B48806B012149020843CC
:100AD0004849886303200002484940318860C86063
:100AE0001BE04448806B0121C902084341498863E7
:100AF000032000024649C86008610EE03D48806B53
:100B00000121490308433B498863032000023E4911
:100B10000860486001E00020AFE751E03D488442B2
:100B20004CD13448406B01210903084331494863E3
:100B3000E1204002864209D12F490968C80931469F
:100B4000FFF7DEFA4221484385B205E071012A48E9
:100B50000068FFF7D5FA85B2002F04D0012F0FD01F
:100B6000022F28D119E02348806B01210903084393
:100B7000204988630320000222498860C8601CE085
:100B80001C48806B0121090308431A49886303202C
:100B900000021C49086148610FE01648806B012182
:100BA0004903084313498863032000021649403172
:100BB0008861C86101E000205FE701E000205CE798
:100BC000E0780C218843E0700020A0702078410973
:100BD000490101911F200002284000120199084399
:100BE00020706570E0780C210843E070012044E734
:100BF00000A00640008004401CF0FF1F009004404D
:100C000040A0044000C0044000D0044000B00640B2
:100C100000B0044000C0064000BF027980231A40A3
:100C2000802AFAD1C171704730B505460C4604E000
:100C300021782846FFF7F0FF641C20780028F7D1C0
:100C400030BD0000010001014000000040F0FF1F26
:100C500040F4FF1FC0F4FF1F000000000000000070
:100C60000000000000000000000000000000000084
:0C0C700000000000000000000000400137
:04000005000000C136
:00000001FF
